{
  "_format": "hh-sol-artifact-1",
  "contractName": "gasChallenge",
  "sourceName": "contracts/gasChallenge.sol",
  "abi": [
    {
      "inputs": [],
      "name": "getSumOfArray",
      "outputs": [
        {
          "internalType": "uint256",
          "name": "",
          "type": "uint256"
        }
      ],
      "stateMutability": "view",
      "type": "function"
    },
    {
      "inputs": [],
      "name": "notOptimizedFunction",
      "outputs": [],
      "stateMutability": "nonpayable",
      "type": "function"
    },
    {
      "inputs": [],
      "name": "optimizedFunction",
      "outputs": [],
      "stateMutability": "nonpayable",
      "type": "function"
    }
  ],
  "bytecode": "0x6080604052604051806101400160405280600160ff168152602001600260ff168152602001600360ff168152602001600460ff168152602001600560ff168152602001600660ff168152602001600760ff168152602001600860ff168152602001600960ff168152602001600a60ff16815250600090600a610082929190610095565b5034801561008f57600080fd5b506100f7565b82600a81019282156100c9579160200282015b828111156100c8578251829060ff169055916020019190600101906100a8565b5b5090506100d691906100da565b5090565b5b808211156100f35760008160009055506001016100db565b5090565b61028d806101066000396000f3fe608060405234801561001057600080fd5b50600436106100415760003560e01c806368b5f223146100465780637ce418941461005057806380d2c8031461005a575b600080fd5b61004e610078565b005b6100586100b4565b005b6100626100f8565b60405161006f9190610162565b60405180910390f35b60005b600a8110156100b15760008082600a81106100995761009861017d565b5b018190555080806100a9906101db565b91505061007b565b50565b6000600a905060008190505b60008111156100f45760008060018303600a81106100e1576100e061017d565b5b01819055508080600190039150506100c0565b5050565b6000806000905060005b600a81101561014157600081600a811061011f5761011e61017d565b5b01548261012c9190610223565b91508080610139906101db565b915050610102565b508091505090565b6000819050919050565b61015c81610149565b82525050565b60006020820190506101776000830184610153565b92915050565b7f4e487b7100000000000000000000000000000000000000000000000000000000600052603260045260246000fd5b7f4e487b7100000000000000000000000000000000000000000000000000000000600052601160045260246000fd5b60006101e682610149565b91507fffffffffffffffffffffffffffffffffffffffffffffffffffffffffffffffff8203610218576102176101ac565b5b600182019050919050565b600061022e82610149565b915061023983610149565b9250828201905080821115610251576102506101ac565b5b9291505056fea2646970667358221220336566d57826241ec2e3d5bda417d38f0a1af2594f1d50f75c29e8e64cd8cc4c64736f6c63430008120033",
  "linkReferences": {},
  "deployedLinkReferences": {}
}